:020000040800F2
:10000000001000202514000875140008751400085D
:1000100000000000000000000000000000000000E0
:10002000000000000000000000000000751400083F
:1000300000000000000000007514000821130008F3
:10004000751400087514000875140008751400086C
:10005000751400087514000875140008751400085C
:10006000751400087514000875140008751400084C
:10007000751400087514000875140008751400083C
:1000800075140008751400080000000075140008BD
:10009000751400087514000875140008751400081C
:1000A000751400087514000875140008751400080C
:1000B000751400080000000075140008000000001E
:0400C0005FF808F1EC
:1000C40010B5064C2378002B07D1054B002B02D02A
:1000D400044800E000BF0123237010BD1400002079
:1000E40000000000D8150008044B10B5002B03D005
:1000F4000349044800E000BF10BDC04600000000F2
:1001040018000020D8150008002243088B4274D33D
:1001140003098B425FD3030A8B4244D3030B8B4204
:1001240028D3030C8B420DD3FF22090212BA030C0D
:100134008B4202D31212090265D0030B8B4219D3EE
:1001440000E0090AC30B8B4201D3CB03C01A52410E
:10015400830B8B4201D38B03C01A5241430B8B4256
:1001640001D34B03C01A5241030B8B4201D30B033F
:10017400C01A5241C30A8B4201D3CB02C01A524166
:10018400830A8B4201D38B02C01A5241430A8B4229
:1001940001D34B02C01A5241030A8B4201D30B0212
:1001A400C01A5241CDD2C3098B4201D3CB01C01A2C
:1001B400524183098B4201D38B01C01A5241430936
:1001C4008B4201D34B01C01A524103098B4201D324
:1001D4000B01C01A5241C3088B4201D3CB00C01A91
:1001E400524183088B4201D38B00C01A5241430809
:1001F4008B4201D34B00C01A5241411A00D201462E
:10020400524110467047FFE701B5002000F006F8A0
:1002140002BDC0460029F7D076E770477047C04654
:1002240070B500220C4B04000D0000F001FF002803
:1002340004D12000290000F05BFE70BD064B0022B3
:100244002000290000F03EFB00F052FE80231B0634
:100254009C466044F1E7C0460000E041F0B55746D3
:100264004546DE464E46E0B54C000E0387B0834655
:1002740092461D008046360B640DCF0F002C4FD0E4
:100284006F4B9C4235D08023420F1B04F60013436E
:1002940033439946C30098466A4B00269C46002384
:1002A400644403932B031B0B9B466B00ED0F5046DA
:1002B4005B0D01955ED0624A934253D05A46D100F9
:1002C4008022400F120402430A4393465246D1004F
:1002D4005C4A944600226344380068408446029095
:1002E400E41A16430F2E00D9B4E0574BB6009B59BD
:1002F4009F460300334399466CD10023984602334A
:1003040008260393CEE7CB464146039A0197022A77
:1003140065D1019B4A4C9C460023002298466BE021
:100324000300334399464ED0002E00D1BCE1300087
:1003340000F088FE03000B3B1C2B00DDACE11D220A
:10034400D31A5A460100DA4008398E401300334369
:1003540099465B468B40984600233C4C0026241A61
:1003640003939FE751465A46114329D100229346ED
:100374000232B1E7594601431ED05B46002B00D13F
:100384009EE1584600F05EFE03000B3B1C2B00DD93
:100394008FE102005946083A91408B461D21CB1A41
:1003A4005146D9400B0059460B4351469B46914058
:1003B400264B00221B1A8FE7002301229B468BE762
:1003C4005146032288E7002398460133042600247B
:1003D400039367E70323B14603930C2662E7032ADA
:1003E40000D15CE2019B012A00D0E4E113409C4669
:1003F400002300240022984600211203130B0A0D47
:1004040012051A432305124C404622401343624608
:100414005B00D2075B081343190007B03CBC90464D
:100424009946A246AB46F0BD002380229C461203A7
:100434009846034CE0E70023014C00229846DBE792
:10044400FF07000001FCFFFFF01500080DFCFFFF93
:10045400FFFF0F80D94500D939E100D134E10023F1
:1004640046464D469A46013C5B460A0E1B021A4319
:100474000B02170C039313041B0C3900280090463D
:100484000193FFF741FE0200019B83465A43280073
:1004940039009146FFF7BEFE350C09040D43A9450A
:1004A4000DD95B464544013BA84500D93AE1A9452D
:1004B40000D837E102235B429C464544E3444B4663
:1004C400EB1A390018000493FFF71EFE019B050088
:1004D4004343390004989946FFF79CFE330409040A
:1004E4001B0C0B43994509D943446A1E984500D90E
:1004F4001AE1994500D817E1023D43444A469B1A44
:100504005A4612042A4303999346100C0A0C914646
:1005140009045A46090C4E460D001204120C4543B8
:10052400059151437243704352190E0CB21895420F
:1005340003D980256D02AC466044150C09041204ED
:10054400090C28185218834200D2CEE000D1C8E02A
:100554001D1A53469E1AB24592415242AB1A9A460C
:10056400984500D117E139001800FFF7CDFD019B34
:1005740005004343390050460493FFF74BFE0498AB
:100584000B04310C1943884209D941446B1E884538
:1005940000D907E1884200D804E1023D4144049BAC
:1005A400CB1A180039000493FFF7AEFD019B824675
:1005B4004343390004980193FFF72CFE01980B0480
:1005C4003104090C194388420DD953464144013B77
:1005D400884500D9E8E0884200D8E5E002235B4280
:1005E4009C464144E244019B2D04CE1A51462943C2
:1005F400059D4F462A000B04080C1B0C5A43454327
:100604007B4378435B19170CFB189D4203D9802563
:100614006D02AC4660441D0C12041B04120C281815
:100624009B18864200D293E000D18EE00123194347
:10063400A04BE318002B00DC99E04A0700D09EE0B1
:100644005A46D20106D55A469B4B1A4080239346FC
:10065400DB00E318994A934268DD0123029A984C1F
:100664001A400023944698460022C5E680224B4651
:10067400120313420AD05B46134206D11A431203F3
:10068400120BAC4688468E4CB6E64B461A43120310
:10069400120BBC468A4CAFE603005A46283B9A40EC
:1006A40000239146984657E6584600F0CBFC20308C
:1006B40040E603005246283B9A400021934677E6E1
:1006C40000F0C0FC20305FE6884500D2C7E64B4608
:1006D400DE075D0843465B081E434346DB079A4634
:1006E400C2E60025924500D333E7039E5946B4463B
:1006F400E244B245AD416D424544EB180139984599
:1007040007D2984200D97FE000D1BCE01D1A8B4685
:100714001FE79845FAD1039D5545F2D943468B46C8
:100724001D1A16E79B46CAE61500E7E65A46C908AD
:1007340052070A435B0590465C0D5A460123029911
:1007440052021940120B8C4656E6002B00D16FE77B
:1007540046444A1EB04529D91100864200D065E7B7
:10076400039A934200D061E762E7012149420120E4
:10077400C21A382A21DD029B03409C4638E60F2228
:100784000A40042A00D15BE70A00111D91429241FC
:100794005242934454E7474BE318002BE5DD012212
:1007A4005242F2E71D00FAE69A461CE7B04239D8F5
:1007B4006ED011003AE702933AE71F2A3CDC20236B
:1007C4009B1A0C005846994098404B1E99415B4631
:1007D400D440D340204308431A00430709D00F23D1
:1007E4000340042B05D00100081D88429B415B4255
:1007F400D21813023AD50123029A01241A40002385
:10080400944698460022F7E5022149428C46039D0E
:10081400E344AC46E244AA45AD416D424544ED187B
:100824002D1A96E68A1E03994D008D42894149424C
:100834004144761803958FE71F204042C31A584657
:10084400D8400300202A28D040205D46821A9540D3
:1008540029434A1E91411943072300220B4009D022
:100864000F2300220B400800042BBDD101005307C5
:100874005202120BC9081943012388460299002425
:1008840019408C46B8E55245BED88B46002560E633
:10089400039D9D42C6D3110062E70025D8E780225C
:1008A4005B4612031A43019B1203120B9C468846B3
:1008B400034CA1E5FF030000FFFFFFFEFE0700005D
:1008C400FF070000F0B54646D6464F460C03C0B5B8
:1008D400CD0F4E00610A440F0C43C1005800400D77
:1008E40084468A460F001903500F490A0143C6483B
:1008F400760DA846DB0FD200844500D1D8E0012054
:100904004340AB4200D1A6E06046351A002D00DC1E
:1009140005E1002810D10B00134300D1D7E06B1E72
:10092400002B00D04BE153469F1ABA458041641A0C
:100934004042241A01261EE0B34B9E4248D0802335
:100944001B041943382D00DD19E11F2D00DD4CE196
:1009540020230F005B1B10009A409F40E840531E69
:100964009A41E940074317435346DF1B611ABA45CE
:10097400A44164420C1B230200D4C5E06402650A4E
:10098400002D00D1F6E0280000F05CFB0300083BDA
:100994001F2B00DDE9E020223C00D21A9D40D44008
:1009A4009F4025439E4200DDDBE09E1B731C1F2BF2
:1009B40000DD0AE120223800D21A290097402C00D9
:1009C4009140D8407A1E9741DC40002601430F43F2
:1009D4007B0709D00F233B40042B05D03B1DBB42B2
:1009E400BF417F42E4191F00230225D5864B0136FF
:1009F4009E4200D1AFE0854B01251C40434662076F
:100A0400FF08640276051743240B760D1D40002170
:100A14002403230B0C0D7E4A24051C431440330588
:100A240023435B00ED075B082B43380019001CBC13
:100A340090469946A246F0BD012543466207FF0849
:100A44001743E4081D40704B9E4236D024037605BC
:100A5400240B760DDBE76346F31A002B00DC94E0ED
:100A64006046002835D068488642B1D080273F04CC
:100A74003943382B00DCFDE00A43170000217A1EBD
:100A84009741574457458041091944420C192302A0
:100A94003AD55D4B01369E4200D14BE101225B4BBE
:100AA4001C407B0817401F43E207174364088FE785
:100AB4000800104300D024E721E723003B4300D182
:100AC400B9E18022120314432403240B9FE72E0070
:100AD4007EE70800104300D1CAE0581E844600286F
:100AE40000D0E7E052445245804164184042241843
:100AF40017000126230207D50226CFE764462C43BC
:100B040000D1B3E12C0067467B0700D062E763079E
:100B1400FF081F4301254346E4081D4093E7002DC9
:100B240078D1751C6D056D0D012D00DCF2E0504689
:100B3400801A8245BF41651A7F42ED1B8446280214
:100B440000D48CE05046171ABA4292410C1B55420D
:100B5400651B984614E70125434600241D400027E1
:100B640055E72A4CF61A2C4032E73D0028388540D8
:100B7400002717E7380000F065FA203006E70A433B
:100B8400170000217A1E9741EEE6002B00D0E5E025
:100B9400731C9C465B055B0D012B00DC9FE01A4B2C
:100BA4009C4500D1C5E052445245804164184042FE
:100BB4002418E707520817436408664608E71248F2
:100BC400854200D185E01D00BCE629001F3EF140AE
:100BD400202B00D17FE04022D31A9D402F437D1E5D
:100BE400AF4100240F4300268EE72B000F00203B6B
:100BF400DF40202D71D040235D1BA9400A43511EC4
:100C04008A4100211743AFE6FF070000FFFF7FFF83
:100C1400FFFF0F80002E3ED0B34EB44545D0802652
:100C240036046D423443382D00DDA8E01F2D00DD6D
:100C34001FE1202627005046761BB740E8400743B3
:100C44005046B040461EB041EC403843171ABA42F1
:100C540092410C1B5242A41A664698468BE664469F
:100C640067462C4300D08BE6002500260027EAE6E1
:100C74001E00ADE61F2B60DC2027F81A0F00844607
:100C840087401000D840074360468240501E82418E
:100C9400D9401743F5E626005046064305D0ED43F8
:100CA400002DD3D0904EB445BDD10C00170066463C
:100CB40098468DE68C4883420BD06346D9E6002DD6
:100CC40000D096E00800104300D1E2E00C001700C9
:100CD4009846854E7CE6002580E700218EE72300B8
:100CE40050460343002E00D0A8E0002B00D1DEE0E4
:100CF4000B00134300D16BE6524452458041641803
:100D0400404224181700230200D4FDE6774B6646C0
:100D14001C405DE6250050460543002ECFD1002D32
:100D24004FD10C00144300D1A0E00C0017009846EA
:100D34004EE666460024002785E61F000800203F93
:100D4400F8400700202B00D18EE04020C31A9940C0
:100D54000A43511E8A410021174392E6002E14D102
:100D640026005046064362D0DB43002B5CD1871833
:100D74009742924164185242A418664687E6504648
:100D84002043441EA041002460E7574EB4454ED092
:100D9400802636045B423443382B00DD7FE01F2B72
:100DA40000DD8BE0202627005046F61AB740D840D5
:100DB40007435046B040461EB0410743DC40BF18CD
:100DC400D6E70D00154300D102E65046801A82454D
:100DD400BF41651A7F42ED1B8446280200D48DE68C
:100DE4005046171ABA4292410C1B5242A41A984612
:100DF400EEE50D00154300D16BE750466707C008C8
:100E040007438020E4080003044207D0CD080542CC
:100E140004D12C009846D70849070F437B0FE40000
:100E24001C43FF00304ED3E52F4EB445B4D10C0023
:100E340017006646CCE500270024E8E5002B39D0EE
:100E44000B00134300D144E7C00867070743802021
:100E5400E40800030442E1D0CB080342DED1D70802
:100E640049070F431C00D9E7002171E7002500273B
:100E7400E9E52E002700203EF740202D2FD0402604
:100E8400751BAC4050462043441EA0410024384307
:100E9400DCE6802400252403134E0027D3E55046C6
:100EA40020430700781E87410024BF1860E70C0028
:100EB40017008DE50C0017000B4E89E51E00270076
:100EC400203EF740202B0CD04026F31A9C4050467D
:100ED4002043441EA04107430024BF1848E70024D0
:100EE400D0E70024F3E7C046FF070000FFFF7FFFC1
:100EF40030B5134D0A034B00120B5B0DC90F0024D0
:100F0400AB4210DD0F4CA3420FDC80240E4D640372
:100F14002243ED1A1F2D0BDD0C48C31ADA4054424C
:100F2400002900D11400200030BD094BCC18FAE789
:100F3400084CE840A44663449A400243EFE7C046A5
:100F4400FE0300001D04000033040000130400002D
:100F5400FFFFFF7FEDFBFFFF10B5041E28D000F05C
:100F640071F8154B154A1B1AD21A1F2A15DD144A9B
:100F7400D21A9440002224035B05240B5B0D00214C
:100F8400100024030A0D240B120522430D4C1B05EB
:100F9400224013435B00590810BD210091400A0010
:100FA4000B21081AC4405B052403240B5B0DE6E700
:100FB400002300240022E2E71E04000033040000A2
:100FC40013040000FFFF0F808446101C62468C4609
:100FD400191C634600E0C0461FB500F0EFF8002876
:100FE40001D40021C8421FBD10B500F049F84042A9
:100FF400013010BD10B500F0E1F8002801DB00203D
:1010040010BD012010BDC04610B500F0D7F800286F
:1010140001DD002010BD012010BDC04610B500F058
:1010240069F8002801DC002010BD012010BDC04675
:1010340010B500F05FF8002801DA002010BD01208F
:1010440010BDC0461C2101231B04984201D3000C8F
:1010540010391B0A984201D3000A08391B09984227
:1010640001D30009043902A2105C40187047C0463D
:10107400040302020101010100000000000000005D
:10108400F0B54F464646D6465C00C0B51F03DB0F9D
:101094009A46174B0E034D0084468046360B6D0D61
:1010A400C90F91463F0B640D01209D4208D09C421C
:1010B40001D0A5420BD01CBC90469946A246F0BD77
:1010C40063463343F7D1AC42F5D13A43F3D101201F
:1010D400BE42F0D1C845EED1514507D0002DEAD12A
:1010E40063461E433000461EB041E4E70020E2E7B9
:1010F400FF070000F0B54546DE4657464E46E0B5CC
:101104001F033D0B2C4F0E034C00AB465D00844681
:10111400360B640DC90F90466D0DDB0FBC422AD00F
:10112400254FBD422DD0002C0FD1304307008146FE
:1011340078427841C0B2002D17D15F463A4314D1AA
:101144004B460020002B0AD006E0002D02D1584661
:10115400024301D0994218D04842012108433CBCC3
:1011640090469946A246AB46F0BD0028F2D0012035
:10117400013B1843F3E737000743D1D00220404234
:10118400EDE75F461743CED0F8E7AC42E4DC03DA80
:10119400481E01210843E2E75E45DDD806D0002061
:1011A4005E45DCD20123481E1843D8E7C445D3D892
:1011B4000020C445F6D3D2E7FF070000F0B54E4641
:1011C4004546DE4657465C00E0B51F03DB0F9946F3
:1011D4002A4B0E034D00C90F8446360B6D0D8B460A
:1011E40090463F0B640D9D4220D0244B9C4222D05C
:1011F400002D12D1304343424341DBB2002C1FD0B7
:10120400002B0CD04B460120013B034318003CBC8F
:1012140090469946A246AB46F0BD002C16D0CB456D
:1012240017D05B46594201230B43EFE731000223F9
:101234000143EBD1D9E7390002231143E6D1D7E7C3
:101244003A43DDD100230028E0D0EAE73A43E6D16F
:10125400E7E7A542E5DC05DBBE42E2D807D0002380
:10126400BE42D3D25946012301390B43CEE7C445CC
:10127400D7D80023C445F5D3C8E7C046FF0700000C
:10128400F7B50B680193002301259D40019A2A407C
:1012940095422DD10A79541E012C16D884685F001A
:1012A40026000324BC40A64386608468A4464C7987
:1012B400BC4067463C4384608488AC4384808D7919
:1012C40084889D402C43A4B2848003245D00AC40F8
:1012D400E443AA4007682740076007683A4302606E
:1012E400C2681440C460CA79C468AA402243C26078
:1012F4000133102BC8D1F7BD002A01D0816170479A
:101304000185FCE7044B5A69002902D01043586157
:10131400704782435A61FBE700100240FA21084BF0
:1013240010B51A68890001321A601868FEF772FF56
:10133400044B994203D1044A13680133136010BD6E
:1013440030000020E703000034000020064A82B089
:1013540013680193136801995B1A834201D302B0A5
:101364007047C046F6E7C0463000002010B500F0D4
:1013740081F800F0D9F80E4B1868FFF7EDFD0D4B1E
:101384000022FEF76BFFFEF74BFF0B4B98420ED883
:10139400C0210A4A0138506009480906036A1B0241
:1013A4001B0A0B430362002393600733136010BDD1
:1013B4001000002000408F40FFFFFF0010E000E01D
:1013C40000ED00E037B5FFF7D1FF80200121800256
:1013D400FFF798FF01246B4690206A461C71032393
:1013E4006946C00553710094FFF74AFF902022001C
:1013F4002100C0059025FFF77FFFED0521000022A5
:101404002800FFF779FF6420FFF7A0FF28002200DF
:101414002100FFF771FF6420FFF798FFEEE700005B
:101424000D488546002103E00C4B5B5843500431C2
:101434000B480C4B42189A42F6D30B4A02E00023A5
:1014440013600432094B9A42F9D300F013F800F008
:101454009DF8FFF7B7FFFEE70010002038160008DC
:101464000000002014000020140000203800002098
:10147400FEE7000013B50124244B25491A682548CA
:1014840022431A605A680A405A601A6822490A407C
:101494001A601A6821490A401A605A6802405A6060
:1014A4000F22D96A9143D962196B1D4A11401963FD
:1014B400596B1C4AA1435963002199600091019121
:1014C400113111605A685A605A685A605A68024069
:1014D4005A60A022596892030A435A60802219680C
:1014E40052040A431A608022920419681142FCD003
:1014F40003215A688A435A60022259680A430C211C
:101504005A605A680A40082AFBD113BD00100240F1
:101514000CB8FFF8FFFFC0FFFFFFF6FEFFFFFBFF65
:10152400ACFEFFFF002002400C2270B5124D134E9A
:101534006B681340042B01D0082B0AD0104B336086
:101544006B68104A1B061B0FD35C3268DA403260AA
:1015540070BD0F236C686A68A40C1C400234D2036B
:1015640003D4094844433460EAE7E96A044819406B
:101574000131FEF7C9FDF5E700100240100000201C
:1015840000127A000000002000093D0070B500261A
:101594000C4D0D4C641BA410A64209D1002600F08A
:1015A40019F80A4D0A4C641BA410A64205D170BD5B
:1015B400B300EB5898470136EEE7B300EB58984771
:1015C4000136F2E73016000830160008301600081D
:1015D40034160008F8B5C046F8BC08BC9E467047EF
:0C15E400F8B5C046F8BC08BC9E46704735
:1015F000580400083A040008F40300081203000825
:10160000F40300082C040008F40300081203000887
:101610003A0400083A0400082C04000812030008E9
:101620000A0300080A0300080A03000870060008FD
:04163000ED000008C1
:04163400C5000008E5
:10163800000000000000000001020304060708097A
:04164800006CDC0254
:0400000508001425B6
:00000001FF
